{
  "contractName": "Product",
  "abi": [
    {
      "inputs": [],
      "payable": false,
      "stateMutability": "nonpayable",
      "type": "constructor"
    },
    {
      "anonymous": false,
      "inputs": [
        {
          "indexed": false,
          "internalType": "address",
          "name": "productOwnerAddress",
          "type": "address"
        },
        {
          "indexed": false,
          "internalType": "string",
          "name": "productOwnerName",
          "type": "string"
        },
        {
          "indexed": false,
          "internalType": "string",
          "name": "productName",
          "type": "string"
        },
        {
          "indexed": false,
          "internalType": "uint256",
          "name": "creationDate",
          "type": "uint256"
        }
      ],
      "name": "ReturnValue",
      "type": "event"
    },
    {
      "constant": false,
      "inputs": [
        {
          "internalType": "string",
          "name": "_productOwnerName",
          "type": "string"
        },
        {
          "internalType": "string",
          "name": "_productName",
          "type": "string"
        }
      ],
      "name": "addProduct",
      "outputs": [],
      "payable": false,
      "stateMutability": "nonpayable",
      "type": "function"
    },
    {
      "constant": true,
      "inputs": [],
      "name": "getAllProductIds",
      "outputs": [
        {
          "internalType": "uint256[]",
          "name": "",
          "type": "uint256[]"
        }
      ],
      "payable": false,
      "stateMutability": "view",
      "type": "function"
    },
    {
      "constant": true,
      "inputs": [
        {
          "internalType": "uint256",
          "name": "_productId",
          "type": "uint256"
        }
      ],
      "name": "getProductFromProductId",
      "outputs": [
        {
          "internalType": "address",
          "name": "",
          "type": "address"
        },
        {
          "internalType": "string",
          "name": "",
          "type": "string"
        },
        {
          "internalType": "string",
          "name": "",
          "type": "string"
        },
        {
          "internalType": "uint256",
          "name": "",
          "type": "uint256"
        }
      ],
      "payable": false,
      "stateMutability": "view",
      "type": "function"
    },
    {
      "constant": true,
      "inputs": [],
      "name": "getProductCount",
      "outputs": [
        {
          "internalType": "uint256",
          "name": "productCount",
          "type": "uint256"
        }
      ],
      "payable": false,
      "stateMutability": "view",
      "type": "function"
    },
    {
      "constant": false,
      "inputs": [
        {
          "internalType": "uint256",
          "name": "_productId",
          "type": "uint256"
        },
        {
          "internalType": "address",
          "name": "_productOwnerAddress",
          "type": "address"
        },
        {
          "internalType": "string",
          "name": "_productName",
          "type": "string"
        }
      ],
      "name": "isProduct",
      "outputs": [
        {
          "internalType": "bool",
          "name": "isIndeed",
          "type": "bool"
        }
      ],
      "payable": false,
      "stateMutability": "nonpayable",
      "type": "function"
    }
  ],
  "bytecode": "0x608060405234801561001057600080fd5b50336000806101000a81548173ffffffffffffffffffffffffffffffffffffffff021916908373ffffffffffffffffffffffffffffffffffffffff160217905550635e23b7b16001819055506000600281905550610a6e806100736000396000f3fe608060405234801561001057600080fd5b50600436106100575760003560e01c80634a348da91461005c578063663c01af1461007a5780639919cd0d146100d9578063ca2efb55146101d6578063d6c7bdbe14610328575b600080fd5b610064610475565b6040518082815260200191505060405180910390f35b610082610482565b6040518080602001828103825283818151815260200191508051906020019060200280838360005b838110156100c55780820151818401526020810190506100aa565b505050509050019250505060405180910390f35b6101bc600480360360608110156100ef57600080fd5b8101908080359060200190929190803573ffffffffffffffffffffffffffffffffffffffff1690602001909291908035906020019064010000000081111561013657600080fd5b82018360208201111561014857600080fd5b8035906020019184600183028401116401000000008311171561016a57600080fd5b91908080601f016020809104026020016040519081016040528093929190818152602001838380828437600081840152601f19601f8201169050808301925050505050505091929192905050506104da565b604051808215151515815260200191505060405180910390f35b610326600480360360408110156101ec57600080fd5b810190808035906020019064010000000081111561020957600080fd5b82018360208201111561021b57600080fd5b8035906020019184600183028401116401000000008311171561023d57600080fd5b91908080601f016020809104026020016040519081016040528093929190818152602001838380828437600081840152601f19601f820116905080830192505050505050509192919290803590602001906401000000008111156102a057600080fd5b8201836020820111156102b257600080fd5b803590602001918460018302840111640100000000831117156102d457600080fd5b91908080601f016020809104026020016040519081016040528093929190818152602001838380828437600081840152601f19601f8201169050808301925050505050505091929192905050506106e1565b005b6103546004803603602081101561033e57600080fd5b81019080803590602001909291905050506107cc565b604051808573ffffffffffffffffffffffffffffffffffffffff1673ffffffffffffffffffffffffffffffffffffffff1681526020018060200180602001848152602001838103835286818151815260200191508051906020019080838360005b838110156103d05780820151818401526020810190506103b5565b50505050905090810190601f1680156103fd5780820380516001836020036101000a031916815260200191505b50838103825285818151815260200191508051906020019080838360005b8381101561043657808201518184015260208101905061041b565b50505050905090810190601f1680156104635780820380516001836020036101000a031916815260200191505b50965050505050505060405180910390f35b6000600480549050905090565b606060048054806020026020016040519081016040528092919081815260200182805480156104d057602002820191906000526020600020905b8154815260200190600101908083116104bc575b5050505050905090565b600082604051602001808273ffffffffffffffffffffffffffffffffffffffff1673ffffffffffffffffffffffffffffffffffffffff1660601b8152601401915050604051602081830303815290604052805190602001206003600086815260200190815260200160002060000160009054906101000a900473ffffffffffffffffffffffffffffffffffffffff16604051602001808273ffffffffffffffffffffffffffffffffffffffff1673ffffffffffffffffffffffffffffffffffffffff1660601b81526014019150506040516020818303038152906040528051906020012014156106d557816040516020018082805190602001908083835b602083106105fb57805182526020820191506020810190506020830392506105d8565b6001836020036101000a038019825116818451168082178552505050505050905001915050604051602081830303815290604052805190602001206003600086815260200190815260200160002060020160405160200180828054600181600116156101000203166002900480156106aa5780601f106106885761010080835404028352918201916106aa565b820191906000526020600020905b815481529060010190602001808311610696575b50509150506040516020818303038152906040528051906020012014156106d457600190506106da565b5b600090505b9392505050565b6001544210156106f057600080fd5b60006003600060016002540181526020019081526020016000209050338160000160006101000a81548173ffffffffffffffffffffffffffffffffffffffff021916908373ffffffffffffffffffffffffffffffffffffffff16021790555082816001019080519060200190610767929190610994565b5081816002019080519060200190610780929190610994565b5042816003018190555060046001600254019080600181540180825580915050906001820390600052602060002001600090919290919091505550600160025401600281905550505050565b600060608060006003600086815260200190815260200160002060000160009054906101000a900473ffffffffffffffffffffffffffffffffffffffff1660036000878152602001908152602001600020600101600360008881526020019081526020016000206002016003600089815260200190815260200160002060030154828054600181600116156101000203166002900480601f0160208091040260200160405190810160405280929190818152602001828054600181600116156101000203166002900480156108e25780601f106108b7576101008083540402835291602001916108e2565b820191906000526020600020905b8154815290600101906020018083116108c557829003601f168201915b50505050509250818054600181600116156101000203166002900480601f01602080910402602001604051908101604052809291908181526020018280546001816001161561010002031660029004801561097e5780601f106109535761010080835404028352916020019161097e565b820191906000526020600020905b81548152906001019060200180831161096157829003601f168201915b5050505050915093509350935093509193509193565b828054600181600116156101000203166002900490600052602060002090601f016020900481019282601f106109d557805160ff1916838001178555610a03565b82800160010185558215610a03579182015b82811115610a025782518255916020019190600101906109e7565b5b509050610a109190610a14565b5090565b610a3691905b80821115610a32576000816000905550600101610a1a565b5090565b9056fea265627a7a7231582007cd9fe468993057f2c663228f901116a810e181327bffe2c3c01bf108c82f8164736f6c634300050c0032",
  "source": "pragma solidity >=0.5.0  <0.6.0;\r\n//pragma experimental ABIEncoderV2;\r\n\r\ncontract Product {\r\n    address owner;\r\n    uint256 startTime;\r\n    uint256 productId;\r\n    event ReturnValue(address productOwnerAddress, string productOwnerName, string productName, uint creationDate);\r\n\r\n    struct ProductInformation{\r\n        address productOwnerAddress;\r\n        string productOwnerName;\r\n        string productName;\r\n        uint creationDate;\r\n    }\r\n\r\n    mapping (uint256 => ProductInformation) productInfos;\r\n\r\n    uint256[] productInfoList;\r\n\r\n    modifier onlyWhileOpen() {\r\n        require(block.timestamp >= startTime);\r\n        _;\r\n    }\r\n\r\n    constructor() public {\r\n        owner = msg.sender;\r\n        startTime = 1579399089;\r\n        productId = 0;\r\n    }\r\n\r\n    function addProduct(string memory _productOwnerName, string memory _productName) onlyWhileOpen public{\r\n        Product.ProductInformation storage productInfo = productInfos[productId +1];\r\n\r\n\r\n        productInfo.productOwnerAddress = msg.sender;\r\n        productInfo.productOwnerName = _productOwnerName;\r\n        productInfo.productName = _productName;\r\n        productInfo.creationDate = block.timestamp;\r\n\r\n\r\n        productInfoList.push(productId +1);\r\n        productId = productId +1;\r\n\r\n    }\r\n\r\n\r\n    function getAllProductIds() view public returns(uint256[] memory){\r\n        return productInfoList;\r\n    }\r\n\r\n    function getProductFromProductId(uint256  _productId) view public returns(address , string memory, string memory, uint ){\r\n        return (productInfos[_productId].productOwnerAddress, productInfos[_productId].productOwnerName, productInfos[_productId].productName, productInfos[_productId].creationDate);\r\n    }\r\n\r\n    function getProductCount() public view returns(uint productCount) {\r\n        return productInfoList.length;\r\n    }\r\n\r\n    function isProduct(uint256 _productId, address _productOwnerAddress, string memory _productName)  public returns(bool isIndeed) {\r\n\r\n        if(keccak256(abi.encodePacked(productInfos[_productId].productOwnerAddress)) == keccak256(abi.encodePacked(_productOwnerAddress)) ){\r\n            if(keccak256(abi.encodePacked(productInfos[_productId].productName)) == keccak256(abi.encodePacked(_productName)) ){\r\n                return true;\r\n            }\r\n        }\r\n        return false;\r\n    }\r\n}",
  "sourcePath": "C:/Projects/logcreation/truffle/contracts/Product.sol",
  "compiler": {
    "name": "solc",
    "version": "0.5.12+commit.7709ece9.Emscripten.clang"
  },
  "schemaVersion": "3.0.19",
  "updatedAt": "2020-01-20T00:21:44.997Z",
  "devdoc": {
    "methods": {}
  },
  "userdoc": {
    "methods": {}
  }
}