{
  "contractName": "Product",
  "abi": [
    {
      "inputs": [],
      "payable": false,
      "stateMutability": "nonpayable",
      "type": "constructor"
    },
    {
      "constant": false,
      "inputs": [
        {
          "internalType": "string",
          "name": "_productOwnerName",
          "type": "string"
        },
        {
          "internalType": "string",
          "name": "_productName",
          "type": "string"
        }
      ],
      "name": "addProduct",
      "outputs": [],
      "payable": false,
      "stateMutability": "nonpayable",
      "type": "function"
    },
    {
      "constant": true,
      "inputs": [],
      "name": "getAllProductIds",
      "outputs": [
        {
          "internalType": "int256[]",
          "name": "",
          "type": "int256[]"
        }
      ],
      "payable": false,
      "stateMutability": "view",
      "type": "function"
    },
    {
      "constant": true,
      "inputs": [
        {
          "internalType": "int256",
          "name": "_productId",
          "type": "int256"
        }
      ],
      "name": "getProductFromProductId",
      "outputs": [
        {
          "internalType": "address",
          "name": "",
          "type": "address"
        },
        {
          "internalType": "string",
          "name": "",
          "type": "string"
        },
        {
          "internalType": "string",
          "name": "",
          "type": "string"
        },
        {
          "internalType": "uint256",
          "name": "",
          "type": "uint256"
        }
      ],
      "payable": false,
      "stateMutability": "view",
      "type": "function"
    },
    {
      "constant": true,
      "inputs": [
        {
          "internalType": "string",
          "name": "_asdf",
          "type": "string"
        }
      ],
      "name": "getProductOwnerFromProductId",
      "outputs": [
        {
          "internalType": "string",
          "name": "",
          "type": "string"
        }
      ],
      "payable": false,
      "stateMutability": "view",
      "type": "function"
    }
  ],
  "bytecode": "0x608060405234801561001057600080fd5b50336000806101000a81548173ffffffffffffffffffffffffffffffffffffffff021916908373ffffffffffffffffffffffffffffffffffffffff160217905550635e23b7b16001819055506000600281905550610872806100736000396000f3fe608060405234801561001057600080fd5b506004361061004c5760003560e01c80633913243414610051578063663c01af1461019e578063a5ddda48146101fd578063ca2efb5514610331575b600080fd5b61007d6004803603602081101561006757600080fd5b8101908080359060200190929190505050610483565b604051808573ffffffffffffffffffffffffffffffffffffffff1673ffffffffffffffffffffffffffffffffffffffff1681526020018060200180602001848152602001838103835286818151815260200191508051906020019080838360005b838110156100f95780820151818401526020810190506100de565b50505050905090810190601f1680156101265780820380516001836020036101000a031916815260200191505b50838103825285818151815260200191508051906020019080838360005b8381101561015f578082015181840152602081019050610144565b50505050905090810190601f16801561018c5780820380516001836020036101000a031916815260200191505b50965050505050505060405180910390f35b6101a661064b565b6040518080602001828103825283818151815260200191508051906020019060200280838360005b838110156101e95780820151818401526020810190506101ce565b505050509050019250505060405180910390f35b6102b66004803603602081101561021357600080fd5b810190808035906020019064010000000081111561023057600080fd5b82018360208201111561024257600080fd5b8035906020019184600183028401116401000000008311171561026457600080fd5b91908080601f016020809104026020016040519081016040528093929190818152602001838380828437600081840152601f19601f8201169050808301925050505050505091929192905050506106a3565b6040518080602001828103825283818151815260200191508051906020019080838360005b838110156102f65780820151818401526020810190506102db565b50505050905090810190601f1680156103235780820380516001836020036101000a031916815260200191505b509250505060405180910390f35b6104816004803603604081101561034757600080fd5b810190808035906020019064010000000081111561036457600080fd5b82018360208201111561037657600080fd5b8035906020019184600183028401116401000000008311171561039857600080fd5b91908080601f016020809104026020016040519081016040528093929190818152602001838380828437600081840152601f19601f820116905080830192505050505050509192919290803590602001906401000000008111156103fb57600080fd5b82018360208201111561040d57600080fd5b8035906020019184600183028401116401000000008311171561042f57600080fd5b91908080601f016020809104026020016040519081016040528093929190818152602001838380828437600081840152601f19601f8201169050808301925050505050505091929192905050506106ad565b005b600060608060006003600086815260200190815260200160002060000160009054906101000a900473ffffffffffffffffffffffffffffffffffffffff1660036000878152602001908152602001600020600101600360008881526020019081526020016000206002016003600089815260200190815260200160002060030154828054600181600116156101000203166002900480601f0160208091040260200160405190810160405280929190818152602001828054600181600116156101000203166002900480156105995780601f1061056e57610100808354040283529160200191610599565b820191906000526020600020905b81548152906001019060200180831161057c57829003601f168201915b50505050509250818054600181600116156101000203166002900480601f0160208091040260200160405190810160405280929190818152602001828054600181600116156101000203166002900480156106355780601f1061060a57610100808354040283529160200191610635565b820191906000526020600020905b81548152906001019060200180831161061857829003601f168201915b5050505050915093509350935093509193509193565b6060600480548060200260200160405190810160405280929190818152602001828054801561069957602002820191906000526020600020905b815481526020019060010190808311610685575b5050505050905090565b6060819050919050565b6001544210156106bc57600080fd5b60006003600060016002540181526020019081526020016000209050338160000160006101000a81548173ffffffffffffffffffffffffffffffffffffffff021916908373ffffffffffffffffffffffffffffffffffffffff16021790555082816001019080519060200190610733929190610798565b508181600201908051906020019061074c929190610798565b5042816003018190555060046001600254019080600181540180825580915050906001820390600052602060002001600090919290919091505550600160025401600281905550505050565b828054600181600116156101000203166002900490600052602060002090601f016020900481019282601f106107d957805160ff1916838001178555610807565b82800160010185558215610807579182015b828111156108065782518255916020019190600101906107eb565b5b5090506108149190610818565b5090565b61083a91905b8082111561083657600081600090555060010161081e565b5090565b9056fea265627a7a72315820660e1bfb939509e8075bcd17fcb9a51489ee1574c77ef2135f7e492d1718146064736f6c634300050c0032",
  "source": "pragma solidity >=0.5.0  <0.6.0;\r\n//pragma experimental ABIEncoderV2;\r\n\r\ncontract Product {\r\n    address owner;\r\n    uint256 startTime;\r\n    int productId;\r\n\r\n    struct ProductInformation{\r\n        address productOwnerAddress;\r\n        string productOwnerName;\r\n        string productName;\r\n        uint creationDate;\r\n    }\r\n\r\n    mapping (int => ProductInformation) productInfos;\r\n\r\n    int[] productInfoList;\r\n\r\n    modifier onlyWhileOpen() {\r\n        require(block.timestamp >= startTime);\r\n        _;\r\n    }\r\n\r\n    constructor() public {\r\n        owner = msg.sender;\r\n        startTime = 1579399089;\r\n        productId = 0;\r\n    }\r\n\r\n    function addProduct(string memory _productOwnerName, string memory _productName) onlyWhileOpen public{\r\n        Product.ProductInformation storage productInfo = productInfos[productId +1];\r\n\r\n\r\n        productInfo.productOwnerAddress = msg.sender;\r\n        productInfo.productOwnerName = _productOwnerName;\r\n        productInfo.productName = _productName;\r\n        productInfo.creationDate = block.timestamp;\r\n\r\n\r\n        productInfoList.push(productId +1);\r\n        productId = productId +1;\r\n\r\n    }\r\n\r\n\r\n    function getAllProductIds() view public returns(int[] memory){\r\n        return productInfoList;\r\n    }\r\n\r\n    function getProductFromProductId(int  _productId) view public returns(address , string memory, string memory, uint ){\r\n        return (productInfos[_productId].productOwnerAddress, productInfos[_productId].productOwnerName, productInfos[_productId].productName, productInfos[_productId].creationDate);\r\n    }\r\n\r\n    function getProductOwnerFromProductId(string memory _asdf) view public returns(string memory){\r\n        return _asdf;\r\n    }\r\n\r\n}",
  "sourcePath": "C:/Projects/logcreation/truffle/contracts/Product.sol",
  "compiler": {
    "name": "solc",
    "version": "0.5.12+commit.7709ece9.Emscripten.clang"
  },
  "schemaVersion": "3.0.19",
  "updatedAt": "2020-01-19T13:46:24.280Z",
  "networkType": "ethereum",
  "devdoc": {
    "methods": {}
  },
  "userdoc": {
    "methods": {}
  }
}