{
  "contractName": "Product",
  "abi": [
    {
      "inputs": [],
      "payable": false,
      "stateMutability": "nonpayable",
      "type": "constructor"
    },
    {
      "constant": false,
      "inputs": [
        {
          "internalType": "string",
          "name": "_productOwnerName",
          "type": "string"
        },
        {
          "internalType": "string",
          "name": "_productName",
          "type": "string"
        }
      ],
      "name": "addProduct",
      "outputs": [],
      "payable": false,
      "stateMutability": "nonpayable",
      "type": "function"
    },
    {
      "constant": true,
      "inputs": [],
      "name": "getAllProductIds",
      "outputs": [
        {
          "internalType": "int256[]",
          "name": "",
          "type": "int256[]"
        }
      ],
      "payable": false,
      "stateMutability": "view",
      "type": "function"
    },
    {
      "constant": true,
      "inputs": [
        {
          "internalType": "int256",
          "name": "_productId",
          "type": "int256"
        }
      ],
      "name": "getProductFromProductId",
      "outputs": [
        {
          "internalType": "address",
          "name": "",
          "type": "address"
        },
        {
          "internalType": "string",
          "name": "",
          "type": "string"
        },
        {
          "internalType": "string",
          "name": "",
          "type": "string"
        },
        {
          "internalType": "uint256",
          "name": "",
          "type": "uint256"
        }
      ],
      "payable": false,
      "stateMutability": "view",
      "type": "function"
    },
    {
      "constant": true,
      "inputs": [],
      "name": "oachkattzl",
      "outputs": [
        {
          "internalType": "uint256",
          "name": "",
          "type": "uint256"
        }
      ],
      "payable": false,
      "stateMutability": "view",
      "type": "function"
    }
  ],
  "bytecode": "0x608060405234801561001057600080fd5b50336000806101000a81548173ffffffffffffffffffffffffffffffffffffffff021916908373ffffffffffffffffffffffffffffffffffffffff160217905550635e23b7b1600181905550600060028190555061075c806100736000396000f3fe608060405234801561001057600080fd5b506004361061004c5760003560e01c80630fee05d014610051578063391324341461006f578063663c01af146101bc578063ca2efb551461021b575b600080fd5b61005961036d565b6040518082815260200191505060405180910390f35b61009b6004803603602081101561008557600080fd5b8101908080359060200190929190505050610377565b604051808573ffffffffffffffffffffffffffffffffffffffff1673ffffffffffffffffffffffffffffffffffffffff1681526020018060200180602001848152602001838103835286818151815260200191508051906020019080838360005b838110156101175780820151818401526020810190506100fc565b50505050905090810190601f1680156101445780820380516001836020036101000a031916815260200191505b50838103825285818151815260200191508051906020019080838360005b8381101561017d578082015181840152602081019050610162565b50505050905090810190601f1680156101aa5780820380516001836020036101000a031916815260200191505b50965050505050505060405180910390f35b6101c461053f565b6040518080602001828103825283818151815260200191508051906020019060200280838360005b838110156102075780820151818401526020810190506101ec565b505050509050019250505060405180910390f35b61036b6004803603604081101561023157600080fd5b810190808035906020019064010000000081111561024e57600080fd5b82018360208201111561026057600080fd5b8035906020019184600183028401116401000000008311171561028257600080fd5b91908080601f016020809104026020016040519081016040528093929190818152602001838380828437600081840152601f19601f820116905080830192505050505050509192919290803590602001906401000000008111156102e557600080fd5b8201836020820111156102f757600080fd5b8035906020019184600183028401116401000000008311171561031957600080fd5b91908080601f016020809104026020016040519081016040528093929190818152602001838380828437600081840152601f19601f820116905080830192505050505050509192919290505050610597565b005b6000600154905090565b600060608060006003600086815260200190815260200160002060000160009054906101000a900473ffffffffffffffffffffffffffffffffffffffff1660036000878152602001908152602001600020600101600360008881526020019081526020016000206002016003600089815260200190815260200160002060030154828054600181600116156101000203166002900480601f01602080910402602001604051908101604052809291908181526020018280546001816001161561010002031660029004801561048d5780601f106104625761010080835404028352916020019161048d565b820191906000526020600020905b81548152906001019060200180831161047057829003601f168201915b50505050509250818054600181600116156101000203166002900480601f0160208091040260200160405190810160405280929190818152602001828054600181600116156101000203166002900480156105295780601f106104fe57610100808354040283529160200191610529565b820191906000526020600020905b81548152906001019060200180831161050c57829003601f168201915b5050505050915093509350935093509193509193565b6060600480548060200260200160405190810160405280929190818152602001828054801561058d57602002820191906000526020600020905b815481526020019060010190808311610579575b5050505050905090565b6001544210156105a657600080fd5b60006003600060016002540181526020019081526020016000209050338160000160006101000a81548173ffffffffffffffffffffffffffffffffffffffff021916908373ffffffffffffffffffffffffffffffffffffffff1602179055508281600101908051906020019061061d929190610682565b5081816002019080519060200190610636929190610682565b5042816003018190555060046001600254019080600181540180825580915050906001820390600052602060002001600090919290919091505550600160025401600281905550505050565b828054600181600116156101000203166002900490600052602060002090601f016020900481019282601f106106c357805160ff19168380011785556106f1565b828001600101855582156106f1579182015b828111156106f05782518255916020019190600101906106d5565b5b5090506106fe9190610702565b5090565b61072491905b80821115610720576000816000905550600101610708565b5090565b9056fea265627a7a72315820d0f65b05bd0ffff70f6f2ab6c85ca1ba67934b69a89db3c305692d07a1ca7b5164736f6c634300050c0032",
  "source": "pragma solidity >=0.5.0  <0.6.0;\r\n//pragma experimental ABIEncoderV2;\r\n\r\ncontract Product {\r\n    address owner;\r\n    uint256 startTime;\r\n    int productId;\r\n\r\n    struct ProductInformation{\r\n        address productOwnerAddress;\r\n        string productOwnerName;\r\n        string productName;\r\n        uint creationDate;\r\n    }\r\n\r\n    mapping (int => ProductInformation) productInfos;\r\n\r\n    int[] productInfoList;\r\n\r\n    modifier onlyWhileOpen() {\r\n        require(block.timestamp >= startTime);\r\n        _;\r\n    }\r\n\r\n    constructor() public {\r\n        owner = msg.sender;\r\n        startTime = 1579399089;\r\n        productId = 0;\r\n    }\r\n\r\n    function addProduct(string memory _productOwnerName, string memory _productName) onlyWhileOpen public{\r\n        Product.ProductInformation storage productInfo = productInfos[productId +1];\r\n\r\n\r\n        productInfo.productOwnerAddress = msg.sender;\r\n        productInfo.productOwnerName = _productOwnerName;\r\n        productInfo.productName = _productName;\r\n        productInfo.creationDate = block.timestamp;\r\n\r\n\r\n        productInfoList.push(productId +1);\r\n        productId = productId +1;\r\n\r\n    }\r\n\r\n\r\n    function getAllProductIds() view public returns(int[] memory){\r\n        return productInfoList;\r\n    }\r\n\r\n    function getProductFromProductId(int  _productId) view public returns(address , string memory, string memory, uint ){\r\n        return (productInfos[_productId].productOwnerAddress, productInfos[_productId].productOwnerName, productInfos[_productId].productName, productInfos[_productId].creationDate);\r\n    }\r\n\r\n    function oachkattzl() view public returns(uint){\r\n        return startTime;\r\n    }\r\n\r\n}",
  "sourcePath": "C:/Projects/logcreation/truffle/contracts/Product.sol",
  "compiler": {
    "name": "solc",
    "version": "0.5.12+commit.7709ece9.Emscripten.clang"
  },
  "schemaVersion": "3.0.19",
  "updatedAt": "2020-01-19T13:31:51.620Z",
  "networkType": "ethereum",
  "devdoc": {
    "methods": {}
  },
  "userdoc": {
    "methods": {}
  }
}