{
  "contractName": "Product",
  "abi": [
    {
      "inputs": [],
      "payable": false,
      "stateMutability": "nonpayable",
      "type": "constructor"
    },
    {
      "constant": false,
      "inputs": [
        {
          "internalType": "string",
          "name": "productOwnerName",
          "type": "string"
        },
        {
          "internalType": "string",
          "name": "productName",
          "type": "string"
        }
      ],
      "name": "addProduct",
      "outputs": [],
      "payable": false,
      "stateMutability": "nonpayable",
      "type": "function"
    },
    {
      "constant": true,
      "inputs": [],
      "name": "getProduct",
      "outputs": [
        {
          "components": [
            {
              "internalType": "address",
              "name": "productOwnerAddress",
              "type": "address"
            },
            {
              "internalType": "string",
              "name": "productOwnerName",
              "type": "string"
            },
            {
              "internalType": "string",
              "name": "productName",
              "type": "string"
            },
            {
              "internalType": "uint256",
              "name": "creationDate",
              "type": "uint256"
            }
          ],
          "internalType": "struct Product.ProductInformation[]",
          "name": "",
          "type": "tuple[]"
        }
      ],
      "payable": false,
      "stateMutability": "view",
      "type": "function"
    }
  ],
  "bytecode": "0x608060405234801561001057600080fd5b50336000806101000a81548173ffffffffffffffffffffffffffffffffffffffff021916908373ffffffffffffffffffffffffffffffffffffffff160217905550635e23b7b16001819055506107ce8061006b6000396000f3fe608060405234801561001057600080fd5b50600436106100365760003560e01c80634ba200501461003b578063ca2efb5514610059575b600080fd5b610043610075565b604051610050919061062c565b60405180910390f35b610073600480360361006e9190810190610476565b610278565b005b60606002805480602002602001604051908101604052809291908181526020016000905b8282101561026f57838290600052602060002090600402016040518060800160405290816000820160009054906101000a900473ffffffffffffffffffffffffffffffffffffffff1673ffffffffffffffffffffffffffffffffffffffff1673ffffffffffffffffffffffffffffffffffffffff168152602001600182018054600181600116156101000203166002900480601f0160208091040260200160405190810160405280929190818152602001828054600181600116156101000203166002900480156101ab5780601f10610180576101008083540402835291602001916101ab565b820191906000526020600020905b81548152906001019060200180831161018e57829003601f168201915b50505050508152602001600282018054600181600116156101000203166002900480601f01602080910402602001604051908101604052809291908181526020018280546001816001161561010002031660029004801561024d5780601f106102225761010080835404028352916020019161024d565b820191906000526020600020905b81548152906001019060200180831161023057829003601f168201915b5050505050815260200160038201548152505081526020019060010190610099565b50505050905090565b60015442101561028757600080fd5b600260405180608001604052803373ffffffffffffffffffffffffffffffffffffffff168152602001848152602001838152602001428152509080600181540180825580915050906001820390600052602060002090600402016000909192909190915060008201518160000160006101000a81548173ffffffffffffffffffffffffffffffffffffffff021916908373ffffffffffffffffffffffffffffffffffffffff160217905550602082015181600101908051906020019061034e92919061037d565b50604082015181600201908051906020019061036b92919061037d565b50606082015181600301555050505050565b828054600181600116156101000203166002900490600052602060002090601f016020900481019282601f106103be57805160ff19168380011785556103ec565b828001600101855582156103ec579182015b828111156103eb5782518255916020019190600101906103d0565b5b5090506103f991906103fd565b5090565b61041f91905b8082111561041b576000816000905550600101610403565b5090565b90565b600082601f83011261043357600080fd5b81356104466104418261067b565b61064e565b9150808252602083016020830185838301111561046257600080fd5b61046d838284610738565b50505092915050565b6000806040838503121561048957600080fd5b600083013567ffffffffffffffff8111156104a357600080fd5b6104af85828601610422565b925050602083013567ffffffffffffffff8111156104cc57600080fd5b6104d885828601610422565b9150509250929050565b60006104ee83836105b3565b905092915050565b6104ff816106fc565b82525050565b6000610510826106b7565b61051a81856106da565b93508360208202850161052c856106a7565b8060005b85811015610568578484038952815161054985826104e2565b9450610554836106cd565b925060208a01995050600181019050610530565b50829750879550505050505092915050565b6000610585826106c2565b61058f81856106eb565b935061059f818560208601610747565b6105a88161077a565b840191505092915050565b60006080830160008301516105cb60008601826104f6565b50602083015184820360208601526105e3828261057a565b915050604083015184820360408601526105fd828261057a565b9150506060830151610612606086018261061d565b508091505092915050565b6106268161072e565b82525050565b600060208201905081810360008301526106468184610505565b905092915050565b6000604051905081810181811067ffffffffffffffff8211171561067157600080fd5b8060405250919050565b600067ffffffffffffffff82111561069257600080fd5b601f19601f8301169050602081019050919050565b6000819050602082019050919050565b600081519050919050565b600081519050919050565b6000602082019050919050565b600082825260208201905092915050565b600082825260208201905092915050565b60006107078261070e565b9050919050565b600073ffffffffffffffffffffffffffffffffffffffff82169050919050565b6000819050919050565b82818337600083830152505050565b60005b8381101561076557808201518184015260208101905061074a565b83811115610774576000848401525b50505050565b6000601f19601f830116905091905056fea365627a7a723158209164dda5a5d8e3706ed5bc8d345c26d71bdc80cdbec29a7293847ab679c45b5e6c6578706572696d656e74616cf564736f6c634300050c0040",
  "source": "pragma solidity ^0.5.0;\r\npragma experimental ABIEncoderV2;\r\n\r\ncontract Product {\r\n    address owner;\r\n    uint256 startTime;\r\n\r\n    struct ProductInformation{\r\n        address productOwnerAddress;\r\n        string productOwnerName;\r\n        string productName;\r\n        uint creationDate;\r\n    }\r\n\r\n    ProductInformation[] productInfoList;\r\n\r\n    modifier onlyWhileOpen() {\r\n        require(block.timestamp >= startTime);\r\n        _;\r\n    }\r\n\r\n    constructor() public {\r\n        owner = msg.sender;\r\n        startTime = 1579399089;\r\n    }\r\n\r\n    function addProduct(string memory productOwnerName, string memory productName) onlyWhileOpen public{\r\n        productInfoList.push(ProductInformation(msg.sender, productOwnerName, productName, block.timestamp));\r\n    }\r\n\r\n    function getProduct() view public returns (ProductInformation[] memory) {\r\n        return productInfoList;\r\n    }\r\n\r\n}",
  "sourcePath": "C:/Projects/logcreation/truffle/contracts/Product.sol",
  "compiler": {
    "name": "solc",
    "version": "0.5.12+commit.7709ece9.Emscripten.clang"
  },
  "schemaVersion": "3.0.19",
  "updatedAt": "2020-01-19T03:09:08.842Z",
  "networkType": "ethereum",
  "devdoc": {
    "methods": {}
  },
  "userdoc": {
    "methods": {}
  }
}